{
  "contractName": "Certificate",
  "abi": [
    {
      "inputs": [],
      "stateMutability": "nonpayable",
      "type": "constructor"
    },
    {
      "inputs": [],
      "name": "admin",
      "outputs": [
        {
          "internalType": "address",
          "name": "",
          "type": "address"
        }
      ],
      "stateMutability": "view",
      "type": "function",
      "constant": true
    },
    {
      "inputs": [
        {
          "internalType": "string",
          "name": "",
          "type": "string"
        }
      ],
      "name": "certificates",
      "outputs": [
        {
          "internalType": "string",
          "name": "studentName",
          "type": "string"
        },
        {
          "internalType": "string",
          "name": "course",
          "type": "string"
        },
        {
          "internalType": "string",
          "name": "completionDate",
          "type": "string"
        },
        {
          "internalType": "string",
          "name": "certHash",
          "type": "string"
        },
        {
          "internalType": "bool",
          "name": "isValid",
          "type": "bool"
        }
      ],
      "stateMutability": "view",
      "type": "function",
      "constant": true
    },
    {
      "inputs": [
        {
          "internalType": "string",
          "name": "certID",
          "type": "string"
        },
        {
          "internalType": "string",
          "name": "studentName",
          "type": "string"
        },
        {
          "internalType": "string",
          "name": "course",
          "type": "string"
        },
        {
          "internalType": "string",
          "name": "completionDate",
          "type": "string"
        },
        {
          "internalType": "string",
          "name": "certHash",
          "type": "string"
        }
      ],
      "name": "issueCertificate",
      "outputs": [],
      "stateMutability": "nonpayable",
      "type": "function"
    },
    {
      "inputs": [
        {
          "internalType": "string",
          "name": "certID",
          "type": "string"
        },
        {
          "internalType": "string",
          "name": "certHash",
          "type": "string"
        }
      ],
      "name": "verifyCertificate",
      "outputs": [
        {
          "internalType": "bool",
          "name": "",
          "type": "bool"
        }
      ],
      "stateMutability": "view",
      "type": "function",
      "constant": true
    },
    {
      "inputs": [
        {
          "internalType": "string",
          "name": "certID",
          "type": "string"
        }
      ],
      "name": "getCertificate",
      "outputs": [
        {
          "internalType": "string",
          "name": "studentName",
          "type": "string"
        },
        {
          "internalType": "string",
          "name": "course",
          "type": "string"
        },
        {
          "internalType": "string",
          "name": "completionDate",
          "type": "string"
        },
        {
          "internalType": "string",
          "name": "certHash",
          "type": "string"
        },
        {
          "internalType": "bool",
          "name": "isValid",
          "type": "bool"
        }
      ],
      "stateMutability": "view",
      "type": "function",
      "constant": true
    }
  ],
  "bytecode": "0x608060405234801561001057600080fd5b50336000806101000a81548173ffffffffffffffffffffffffffffffffffffffff021916908373ffffffffffffffffffffffffffffffffffffffff160217905550611222806100606000396000f3fe608060405234801561001057600080fd5b50600436106100575760003560e01c80632751f71b1461005c578063353181581461008c5780638f2b91ea146100a8578063ed0f2e75146100dc578063f851a44014610110575b600080fd5b61007660048036038101906100719190610cbe565b61012e565b6040516100839190610f79565b60405180910390f35b6100a660048036038101906100a19190610d2a565b610428565b005b6100c260048036038101906100bd9190610c7d565b610611565b6040516100d3959493929190610f94565b60405180910390f35b6100f660048036038101906100f19190610c7d565b61088a565b604051610107959493929190610f94565b60405180910390f35b610118610b4e565b6040516101259190610f5e565b60405180910390f35b6000806001846040516101419190610f47565b90815260200160405180910390206040518060a001604052908160008201805461016a9061114b565b80601f01602080910402602001604051908101604052809291908181526020018280546101969061114b565b80156101e35780601f106101b8576101008083540402835291602001916101e3565b820191906000526020600020905b8154815290600101906020018083116101c657829003601f168201915b505050505081526020016001820180546101fc9061114b565b80601f01602080910402602001604051908101604052809291908181526020018280546102289061114b565b80156102755780601f1061024a57610100808354040283529160200191610275565b820191906000526020600020905b81548152906001019060200180831161025857829003601f168201915b5050505050815260200160028201805461028e9061114b565b80601f01602080910402602001604051908101604052809291908181526020018280546102ba9061114b565b80156103075780601f106102dc57610100808354040283529160200191610307565b820191906000526020600020905b8154815290600101906020018083116102ea57829003601f168201915b505050505081526020016003820180546103209061114b565b80601f016020809104026020016040519081016040528092919081815260200182805461034c9061114b565b80156103995780601f1061036e57610100808354040283529160200191610399565b820191906000526020600020905b81548152906001019060200180831161037c57829003601f168201915b505050505081526020016004820160009054906101000a900460ff16151515158152505090508060800151801561041f5750826040516020016103dc9190610f47565b6040516020818303038152906040528051906020012081606001516040516020016104079190610f47565b60405160208183030381529060405280519060200120145b91505092915050565b60008054906101000a900473ffffffffffffffffffffffffffffffffffffffff1673ffffffffffffffffffffffffffffffffffffffff163373ffffffffffffffffffffffffffffffffffffffff16146104b6576040517f08c379a00000000000000000000000000000000000000000000000000000000081526004016104ad90611003565b60405180910390fd5b600015156001866040516104ca9190610f47565b908152602001604051809103902060040160009054906101000a900460ff1615151461052b576040517f08c379a000000000000000000000000000000000000000000000000000000000815260040161052290611023565b60405180910390fd5b6040518060a00160405280858152602001848152602001838152602001828152602001600115158152506001866040516105659190610f47565b9081526020016040518091039020600082015181600001908051906020019061058f929190610b72565b5060208201518160010190805190602001906105ac929190610b72565b5060408201518160020190805190602001906105c9929190610b72565b5060608201518160030190805190602001906105e6929190610b72565b5060808201518160040160006101000a81548160ff0219169083151502179055509050505050505050565b60018180516020810182018051848252602083016020850120818352809550505050505060009150905080600001805461064a9061114b565b80601f01602080910402602001604051908101604052809291908181526020018280546106769061114b565b80156106c35780601f10610698576101008083540402835291602001916106c3565b820191906000526020600020905b8154815290600101906020018083116106a657829003601f168201915b5050505050908060010180546106d89061114b565b80601f01602080910402602001604051908101604052809291908181526020018280546107049061114b565b80156107515780601f1061072657610100808354040283529160200191610751565b820191906000526020600020905b81548152906001019060200180831161073457829003601f168201915b5050505050908060020180546107669061114b565b80601f01602080910402602001604051908101604052809291908181526020018280546107929061114b565b80156107df5780601f106107b4576101008083540402835291602001916107df565b820191906000526020600020905b8154815290600101906020018083116107c257829003601f168201915b5050505050908060030180546107f49061114b565b80601f01602080910402602001604051908101604052809291908181526020018280546108209061114b565b801561086d5780601f106108425761010080835404028352916020019161086d565b820191906000526020600020905b81548152906001019060200180831161085057829003601f168201915b5050505050908060040160009054906101000a900460ff16905085565b6060806060806000806001876040516108a39190610f47565b90815260200160405180910390206040518060a00160405290816000820180546108cc9061114b565b80601f01602080910402602001604051908101604052809291908181526020018280546108f89061114b565b80156109455780601f1061091a57610100808354040283529160200191610945565b820191906000526020600020905b81548152906001019060200180831161092857829003601f168201915b5050505050815260200160018201805461095e9061114b565b80601f016020809104026020016040519081016040528092919081815260200182805461098a9061114b565b80156109d75780601f106109ac576101008083540402835291602001916109d7565b820191906000526020600020905b8154815290600101906020018083116109ba57829003601f168201915b505050505081526020016002820180546109f09061114b565b80601f0160208091040260200160405190810160405280929190818152602001828054610a1c9061114b565b8015610a695780601f10610a3e57610100808354040283529160200191610a69565b820191906000526020600020905b815481529060010190602001808311610a4c57829003601f168201915b50505050508152602001600382018054610a829061114b565b80601f0160208091040260200160405190810160405280929190818152602001828054610aae9061114b565b8015610afb5780601f10610ad057610100808354040283529160200191610afb565b820191906000526020600020905b815481529060010190602001808311610ade57829003601f168201915b505050505081526020016004820160009054906101000a900460ff161515151581525050905080600001518160200151826040015183606001518460800151955095509550955095505091939590929450565b60008054906101000a900473ffffffffffffffffffffffffffffffffffffffff1681565b828054610b7e9061114b565b90600052602060002090601f016020900481019282610ba05760008555610be7565b82601f10610bb957805160ff1916838001178555610be7565b82800160010185558215610be7579182015b82811115610be6578251825591602001919060010190610bcb565b5b509050610bf49190610bf8565b5090565b5b80821115610c11576000816000905550600101610bf9565b5090565b6000610c28610c2384611074565b611043565b905082815260208101848484011115610c4057600080fd5b610c4b848285611109565b509392505050565b600082601f830112610c6457600080fd5b8135610c74848260208601610c15565b91505092915050565b600060208284031215610c8f57600080fd5b600082013567ffffffffffffffff811115610ca957600080fd5b610cb584828501610c53565b91505092915050565b60008060408385031215610cd157600080fd5b600083013567ffffffffffffffff811115610ceb57600080fd5b610cf785828601610c53565b925050602083013567ffffffffffffffff811115610d1457600080fd5b610d2085828601610c53565b9150509250929050565b600080600080600060a08688031215610d4257600080fd5b600086013567ffffffffffffffff811115610d5c57600080fd5b610d6888828901610c53565b955050602086013567ffffffffffffffff811115610d8557600080fd5b610d9188828901610c53565b945050604086013567ffffffffffffffff811115610dae57600080fd5b610dba88828901610c53565b935050606086013567ffffffffffffffff811115610dd757600080fd5b610de388828901610c53565b925050608086013567ffffffffffffffff811115610e0057600080fd5b610e0c88828901610c53565b9150509295509295909350565b610e22816110cb565b82525050565b610e31816110dd565b82525050565b6000610e42826110a4565b610e4c81856110af565b9350610e5c818560208601611118565b610e65816111db565b840191505092915050565b6000610e7b826110a4565b610e8581856110c0565b9350610e95818560208601611118565b80840191505092915050565b6000610eae6022836110af565b91507f4f6e6c792061646d696e2063616e20706572666f726d2074686973206163746960008301527f6f6e0000000000000000000000000000000000000000000000000000000000006020830152604082019050919050565b6000610f14601d836110af565b91507f436572746966696361746520494420616c7265616479206578697374730000006000830152602082019050919050565b6000610f538284610e70565b915081905092915050565b6000602082019050610f736000830184610e19565b92915050565b6000602082019050610f8e6000830184610e28565b92915050565b600060a0820190508181036000830152610fae8188610e37565b90508181036020830152610fc28187610e37565b90508181036040830152610fd68186610e37565b90508181036060830152610fea8185610e37565b9050610ff96080830184610e28565b9695505050505050565b6000602082019050818103600083015261101c81610ea1565b9050919050565b6000602082019050818103600083015261103c81610f07565b9050919050565b6000604051905081810181811067ffffffffffffffff8211171561106a576110696111ac565b5b8060405250919050565b600067ffffffffffffffff82111561108f5761108e6111ac565b5b601f19601f8301169050602081019050919050565b600081519050919050565b600082825260208201905092915050565b600081905092915050565b60006110d6826110e9565b9050919050565b60008115159050919050565b600073ffffffffffffffffffffffffffffffffffffffff82169050919050565b82818337600083830152505050565b60005b8381101561113657808201518184015260208101905061111b565b83811115611145576000848401525b50505050565b6000600282049050600182168061116357607f821691505b602082108114156111775761117661117d565b5b50919050565b7f4e487b7100000000000000000000000000000000000000000000000000000000600052602260045260246000fd5b7f4e487b7100000000000000000000000000000000000000000000000000000000600052604160045260246000fd5b6000601f19601f830116905091905056fea2646970667358221220f6a3b57ea863fc045fb10514edbe2d2943391fce334bf298487fca4b0daef31e64736f6c63430008000033",
  "immutableReferences": {},
  "source": "// SPDX-License-Identifier: MIT\r\npragma solidity ^0.8.0;\r\n\r\ncontract Certificate {\r\n    address public admin;\r\n\r\n    // Structure to hold certificate data\r\n    struct CertData {\r\n        string studentName;\r\n        string course;\r\n        string completionDate;\r\n        string certHash;\r\n        bool isValid;\r\n    }\r\n\r\n    // Mapping to store certificates using CertID\r\n    mapping(string => CertData) public certificates;\r\n\r\n    // Modifier to allow only admin to perform certain actions\r\n    modifier onlyAdmin() {\r\n        require(msg.sender == admin, \"Only admin can perform this action\");\r\n        _;\r\n    }\r\n\r\n    // Constructor to set the admin address to the account that deploys the contract\r\n    constructor() {\r\n        admin = msg.sender;\r\n    }\r\n\r\n    // Issue a certificate by storing its hash and details on-chain\r\n    function issueCertificate(\r\n        string memory certID,\r\n        string memory studentName,\r\n        string memory course,\r\n        string memory completionDate,\r\n        string memory certHash\r\n    ) public onlyAdmin {\r\n        // Check if the certificate ID already exists\r\n        require(certificates[certID].isValid == false, \"Certificate ID already exists\");\r\n\r\n        // Store the certificate data in the mapping\r\n        certificates[certID] = CertData({\r\n            studentName: studentName,\r\n            course: course,\r\n            completionDate: completionDate,\r\n            certHash: certHash,\r\n            isValid: true\r\n        });\r\n    }\r\n\r\n    // Verify the certificate by checking stored hash\r\n    function verifyCertificate(string memory certID, string memory certHash) public view returns (bool) {\r\n        // Fetch the certificate from the mapping\r\n        CertData memory cert = certificates[certID];\r\n        \r\n        // Return true if certificate is valid and hashes match\r\n        return cert.isValid && keccak256(abi.encodePacked(cert.certHash)) == keccak256(abi.encodePacked(certHash));\r\n    }\r\n\r\n    // Fetch certificate details (if needed in frontend)\r\n    function getCertificate(string memory certID) public view returns (\r\n        string memory studentName,\r\n        string memory course,\r\n        string memory completionDate,\r\n        string memory certHash,\r\n        bool isValid\r\n    ) {\r\n        // Fetch the certificate details from the mapping\r\n        CertData memory cert = certificates[certID];\r\n        \r\n        return (\r\n            cert.studentName,\r\n            cert.course,\r\n            cert.completionDate,\r\n            cert.certHash,\r\n            cert.isValid\r\n        );\r\n    }\r\n}\r\n",
  "sourcePath": "D:\\BlockChain\\Certificate\\contracts\\Certificate.sol",
  "compiler": {
    "name": "solc",
    "version": "0.8.0+commit.c7dfd78e.Emscripten.clang"
  },
  "schemaVersion": "3.4.16",
  "updatedAt": "2025-04-17T11:16:51.065Z",
  "networkType": "ethereum",
  "devdoc": {
    "kind": "dev",
    "methods": {},
    "version": 1
  },
  "userdoc": {
    "kind": "user",
    "methods": {},
    "version": 1
  }
}